:020000040800F2
:10000000B8060020290F0008F9010008FB010008CC
:10001000FF010008030200080702000800000000BA
:100020000000000000000000000000000B020008BB
:100030000D020008000000000F020008170C000865
:10004000430F0008430F0008430F0008430F000848
:10005000430F0008430F0008430F0008430F000838
:10006000430F0008430F0008430F0008430F000828
:10007000430F0008430F0008430F0008430F000818
:10008000430F0008430F0008430F0008430F000808
:10009000430F0008430F0008430F0008430F0008F8
:1000A000430F0008430F0008430F0008430F0008E8
:1000B000430F0008430F0008430F0008430F0008D8
:1000C000430F0008430F0008430F0008430F0008C8
:1000D000430F0008E70E0008430F0008FF0E00085A
:1000E000430F0008430F0008430F000800F002F818
:1000F00000F047F80AA090E8000C82448344AAF17B
:100100000107DA4501D100F03CF8AFF2090EBAE878
:100110000F0013F0010F18BFFB1A43F0010318473B
:100120009C3F0000BC3F0000103A24BF78C878C153
:10013000FAD8520724BF30C830C144BF04680C60ED
:10014000704700000023002400250026103A28BF35
:1001500078C1FBD8520728BF30C148BF0B60704739
:10016000662903F05E87002070471FB502F0B4FED9
:1001700004000020002103F01DFCE0601FBD10B54D
:1001800010BD02F0C5FF1146FFF7EFFF00F008F8C1
:1001900002F0E3FF03B4FFF7F2FF03BC00F0F8FD49
:1001A0000A21482000F0FEFC4FF4A06001F060FC42
:1001B0004FF4E13000F0FBFD4FF4E13000F043FE7E
:1001C00000F01CF900F082FB0EE0642000F039FD25
:1001D00000F0BBFA0548006803F008FC044622461C
:1001E0000B4603A002F0C0FBEFE700001400002064
:1001F000252E32660D0A0000704700BFFEE700BFE3
:10020000FEE700BFFEE700BFFEE77047704770479C
:100210000CB50020019000906C48006840F48030DC
:100220006A49086000BF6948006800F40030009027
:100230000198401C0190009818B90198B0F5A06F82
:10024000F1D16248006800F4003010B10120009044
:1002500001E0002000900098012843D15C4800682C
:1002600040F010005A4908600846006820F003007A
:1002700008600846006840F0020008605348406883
:10028000524948600846406848600846406840F463
:10029000806048600846406820F47C10486008464A
:1002A000406840F4E81048600846006840F08070FC
:1002B000086000BF4548006800F000700028F9D0D1
:1002C0004248406820F003004049486008464068C2
:1002D00040F00200486000BF3C48406800F00C005D
:1002E0000828F9D10CBD10B5FFF792FF10BD10B56D
:1002F0003648006840F0010034490860084640680C
:10030000344908403149486008460068324908408D
:100310002E4908600846006820F4802008600846DE
:10032000406820F4FE0048604FF41F008860FFF72B
:10033000DAFF4FF000602949086010BD10B50021B8
:1003400000200022214B5B6803F00C0121B104293D
:1003500006D0082928D107E0214B224C236027E052
:100360001F4B204C236023E0184B5B6803F4701094
:10037000164B5B6803F48032022303EB904022B9F2
:10038000194B4343174C23600DE0104B5B6803F49B
:10039000003323B1144B4343124C236003E0104B52
:1003A0004343104C236003E00D4B0E4C236000BF11
:1003B00000BF064B5B68C3F303130C4CE15C094BB5
:1003C0001B68CB40074C236010BD000000100240AA
:1003D000002002400000FFF8FFFFF6FE08ED00E0FD
:1003E00000127A000000002000093D0004000020F7
:1003F00000BF011EA0F10100FBD1704708B501212B
:10040000082001F0CDF8C020ADF8000010208DF8D4
:10041000030003208DF802006946C34800F004FE83
:10042000C148006820F07040BF4908600846006875
:1004300040F0E04008600120BC490860BC49C1F8B8
:10044000980108BD00B5B848006820F07040B64972
:1004500008600846006840F0E04008600120B349A9
:100460000860B349C1F898010520FFF7C1FF0020DB
:10047000AE4908600520FFF7BBFF0020AC49C1F87A
:10048000980100BD00B5A848006820F07040A6495A
:1004900008600846006840F0E04008600020A3497A
:1004A000091F0860A249C1F89C010520FFF7A0FFC1
:1004B00001209E49091F08609D49C1F89C01052043
:1004C000FFF796FF00BD00B500239748006820F0B5
:1004D0007040954908600846006840F08040086018
:1004E0000120924908600520FFF782FF0AE0581CAE
:1004F000C3B2322B03DDFFF7C5FF012000BD05208D
:10050000FFF776FF8948803800680028EFD1012086
:100510008649091F08600520FFF76AFF002084490B
:10052000C1F8980100BFE9E700B500207F49091F25
:1005300008607D48006820F070407B4908600846EC
:10054000006840F0E040086000207949C1F89C0153
:100550000520FFF74DFF01207449091F08600520A1
:10056000FFF746FF00207249C1F8980100BD00B5B1
:1005700000206E49091F08606B48006820F0704039
:10058000694908600846006840F0E04008600120C2
:100590006749C1F89C010520FFF72AFF0120634944
:1005A000091F08600520FFF723FF00206049C1F8FC
:1005B000980100BD10B503465B48006820F070400C
:1005C000594908600846006840F0E0400860002093
:1005D0005649091F0860002417E0D80953490860EC
:1005E0005806030E0220FFF703FF01205049C1F80F
:1005F00098010520FFF7FCFE00204C49091F086008
:100600000320FFF7F5FE601CC4B2082CE5DB10BD2B
:1006100030B5044600234448006820F07040424949
:1006200008600846006840F080400860002517E038
:1006300000203E49091F08600520FFF7D9FE012070
:100640003B49C1F898015806030E384880380068C5
:1006500008B1581CC3B20520FFF7CAFE681CC5B21A
:10066000082DE5DB14B1FFF75FFF01E0FFF77FFF27
:10067000184630BD2DE9F0410546884616461F460E
:100680000024FFF7DFFE6906080EFFF793FFFFF770
:100690001AFF4046FFF78EFFFFF715FFFFF7D2FE68
:1006A000012101EB4501C8B2FFF784FFFFF70BFF03
:1006B00000BF0DE0701EA04204D00120FFF7A8FF8C
:1006C000385503E00020FFF7A3FF3855601CC4B283
:1006D000B442EFDBFFF7D6FE2046BDE8F0812DE9FE
:1006E000F04105460E46174698460024FFF7AAFE3D
:1006F0006906080EFFF75EFFFFF7E5FE3046FFF7DD
:1007000059FFFFF7E0FE00BF07E018F80400FFF70D
:1007100051FFFFF7D8FE601CC4B2BC42F5DBFFF707
:10072000B1FE0120BDE8F081000C01409C81214216
:10073000008021420870020A4A707047014608781A
:100740004A7840EA022000B270477CB56B4604222A
:1007500032215020FFF78EFF9DF802009DF8031014
:1007600040EA01209DF80010C1EB0111890001EB66
:100770004102C2EBC11100EBC1009DF8011001EB79
:100780004102C2EBC11100EBC100474908606B4652
:10079000062237215020FFF76DFF6846FFF7CEFF96
:1007A000064603F07FFA05464FF08E4103F0B8F994
:1007B00004463E4903F0C2FA3D4908600DF10200CB
:1007C000FFF7BCFF064603F06DFA05464FF08E4179
:1007D00003F0A6F90446354903F0B0FA354908603C
:1007E00001A8FFF7ABFF064603F05CFA05464FF0A1
:1007F0008E4103F095F904462C4903F09FFA2E49E7
:1008000008606B4606223D215020FFF733FF684603
:10081000FFF794FF064603F045FA05464FF08E4178
:1008200003F07EF90446254903F088FA244908605C
:1008300000212348006803F04DFB07D220480168DF
:100840001E4803F079FB1E49086009E01C48006857
:1008500080F000441949204603F06EFB18490860F7
:100860000DF10200FFF76AFF064603F01BFA05468A
:100870004FF08E4103F054F90446104903F05EFA3C
:100880001049086001A8FFF759FF064603F00AFA6D
:1008900005464FF08E4103F043F90446074903F043
:1008A0004DFA094908607CBD2C0000200000FA4484
:1008B00020000020280000202400002000003443F5
:1008C00018000020140000201C00002000B589B092
:1008D0000121084600F071FE0121022000F06DFEAA
:1008E0000121042000F05CFE0121082000F058FEE8
:1008F00003208DF822001C208DF82300CF20ADF8B6
:10090000200008A9A44800F08FFB03208DF82200E6
:1009100014208DF823003020ADF8200008A99E484F
:1009200000F082FB43F20300ADF8200008A99B48C9
:1009300000F07AFB4FF0804001F008F9984801F090
:1009400005F940F2E730ADF818004720ADF8140083
:100950000020ADF81A00ADF816008DF81C0005A9AE
:100960004FF0804001F0C6F90121880701F01EFE1A
:1009700005A98B4801F0BEF90121894801F016FE56
:100980007020ADF804000120ADF806000020ADF89D
:1009900008000220ADF80C000020ADF80A0001A903
:1009A0004FF0804001F0E3F90821C80601F02EFE67
:1009B00001A94FF0804001F01CFA0821C80601F09F
:1009C0002EFE01A94FF0804001F060FA0821C80610
:1009D00001F032FE01A94FF0804001F0A2FA082197
:1009E000C80601F032FE01A96D4801F0C0F90821E6
:1009F0006B4801F00BFE01A9694801F0FAF90821E2
:100A0000674801F00CFE0121880701F0CFFC0121AD
:100A1000880701F0D7FC0121614801F0C7FC0121E2
:100A20005F4801F0CFFC09B000BD70B505460C462B
:100A30001646072D73D2DFE805F0AB04203C567351
:100A400090004CB91021544800F09DFB31464FF006
:100A5000804001F043FF0FE0012C08D110214E48E7
:100A600000F08FFB3146A00701F038FF04E00021C1
:100A70004FF0804001F032FF8BE04CB92021464816
:100A800000F07FFB31464FF0804001F029FF0FE07E
:100A9000012C08D12021404800F075FB3146A00709
:100AA00001F01EFF04E000214FF0804001F018FF2C
:100AB0006FE044B90121394800F063FB3146384802
:100AC00001F00CFF0EE0012C08D10121334800F0A9
:100AD0005AFB3146324801F001FF03E00021304863
:100AE00001F0FCFE55E04CB902212C4800F04BFB14
:100AF00031464FF0804001F0F5FE0FE0012C08D1A7
:100B00000221264800F03DFB3146A00701F0EAFE35
:100B100004E000214FF0804001F0E4FE39E037E0CE
:100B200054B94FF480511D4800F02BFB31464FF073
:100B3000804001F0D9FE0FE0012C08D121031748B5
:100B400000F021FB3146A00701F0CEFE04E00021B9
:100B50004FF0804001F0C8FE1BE04CB94FF400514B
:100B60000E4800F00EFB31460D4801F0B9FE0EE0D4
:100B7000012C08D16103094800F005FB3146084803
:100B800001F0AEFE03E00021054801F0A9FE00E0FF
:100B900000BF00BF70BD000000080140000C014014
:100BA0000004004038B504460D4600204FF0E02117
:100BB000886105FB04F000EB4001C1EBC0104FF071
:100BC000E021486103200861E11704EB5171C1F392
:100BD000C7016B4A11701046007800EB4001C1EB71
:100BE000C0104FF6FF7101EAC000664908804FF45B
:100BF000C06000F03DFFFF208DF8000003208DF85D
:100C0000010000208DF8020001208DF803006846E5
:100C100000F033FF38BD01205B4908705B48007865
:100C200020B15A480078401E58490870704756480D
:100C3000007820B10020544908700120704700203E
:100C4000FCE730B503464FF0E024A1694D4C248801
:100C500003FB04F200204FF0E0246469B2FBF4F4DB
:100C60004A4D2C704FF0E0246469B2FBF4F504FBAC
:100C70001520814215D9081A00BF444C2478002C55
:100C8000FBD10A2806D200BF4FF0E024A4690A2C49
:100C9000FAD824E000BF4FF0E024A4698442FAD8D7
:100CA0001DE03A4C2478641C384D2C704FF0E02441
:100CB00064690C44201A00BF344C2478002CFBD10A
:100CC0000A2806D200BF4FF0E024A4690A2CFAD803
:100CD00005E000BF4FF0E024A4698442FAD830BD9B
:100CE00030B503464FF0E024A169254C247803FB7E
:100CF00004F200204FF0E0246469B2FBF4F4234DC9
:100D00002C704FF0E0246469B2FBF4F504FB15206D
:100D1000814215D9081A00BF1C4C2478002CFBD145
:100D20000A2806D200BF4FF0E024A4690A2CFAD8A2
:100D300024E000BF4FF0E024A4698442FAD81DE00B
:100D4000124C2478641C114D2C704FF0E02464691F
:100D50000C44201A00BF0D4C2478002CFBD10A282B
:100D600006D200BF4FF0E024A4690A2CFAD805E0AF
:100D700000BF4FF0E024A4698442FAD830BD0000DF
:100D800030000020320000203E0000203F00002004
:100D9000014600BF704700BF5F4A128802F0400260
:100DA000002AF9D0C2B25C4B1B1D1A80704710B5E7
:100DB00086B00446012144F2040000F0F1FB4FF438
:100DC0000070ADF8140003208DF8160018208DF87F
:100DD000170005A9514800F027F94FF48060ADF8DD
:100DE000140004208DF8170005A94C4800F01CF9E8
:100DF00025208DF8000003208DF801008DF80200F9
:100E000001208DF80300684600F037FE01940020B1
:100E1000ADF80800ADF80A00ADF80C00ADF8100010
:100E20000C20ADF80E0001A93B4800F060FC012247
:100E300040F22551384800F0F2FC0121364800F01C
:100E4000E2FC06B010BD10B586B00446012188044E
:100E500000F0B3FB0121082000F0A2FB4FF48060FA
:100E6000ADF8140003208DF8160018208DF8170037
:100E700005A92B4800F0D8F84FF40060ADF8140035
:100E800004208DF8170005A9254800F0CDF827208B
:100E90008DF8000002208DF8010003208DF802007B
:100EA00001208DF80300684600F0E7FD0194002062
:100EB000ADF80800ADF80A00ADF80C00ADF8100070
:100EC0000C20ADF80E0001A9164800F010FC01221C
:100ED00040F22551134800F0A2FC0121114800F016
:100EE00092FC06B010BD10B540F225510A4800F042
:100EF0007BFD18B1084800F0F7FCC4B210BD10B576
:100F000040F22551074800F06FFD18B1054800F088
:100F1000EBFCC4B210BD00000038014000080140E5
:100F2000000C01400048004009488047094800473C
:100F3000FEE7FEE7FEE7FEE7FEE7FEE7FEE7FEE789
:100F4000FEE7FEE704480549054A064B70470000E6
:100F5000EF020008ED000008B8000020B8060020ED
:100F6000B8020020B802002010B50446CC488442E4
:100F700008D10121042000F02DFB0021042000F005
:100F800029FB46E0C748844208D10121082000F02F
:100F900021FB0021082000F01DFB3AE0C2488442FA
:100FA00008D10121102000F015FB0021102000F0D5
:100FB00011FB2EE0BD48844208D10121202000F021
:100FC00009FB0021202000F005FB22E0B848844204
:100FD00008D10121402000F0FDFA0021402000F05E
:100FE000F9FA16E0B348844208D10121802000F0CC
:100FF000F1FA0021802000F0EDFA0AE0AE488442C8
:1010000007D10121801500F0E5FA0021A01500F0BC
:10101000E1FA10BD10B50121084600F0DBFA00210D
:10102000012000F0D7FA10BD2DE9F041024600255D
:101030000026002000230024002791F803C00CF0B4
:101040000F0591F803C00CF0100CBCF1000F03D099
:1010500091F802C04CEA050591F800C0BCF1000F00
:1010600031D0146800202BE04FF0010C0CFA00F393
:10107000B1F800C00CEA03069E4220D183004FF075
:101080000F0C0CFA03F7BC4305FA03FC4CEA04040A
:1010900091F803C0BCF1280F06D14FF0010C0CFAF7
:1010A00000FCC2F814C00AE091F803C0BCF1480F7C
:1010B00005D14FF0010C0CFA00FCC2F810C0401C26
:1010C0000828D1D31460B1F800C0BCF1FF0F34DDA3
:1010D000546800202EE000F1080C4FF0010808FAD7
:1010E0000CF3B1F800C00CEA03069E4221D1830044
:1010F0004FF00F0C0CFA03F7BC4305FA03FC4CEA63
:10110000040491F803C0BCF1280F05D100F1080CCC
:1011100008FA0CF8C2F8148091F803C0BCF1480F2B
:1011200007D100F1080C4FF0010808FA0CF8C2F8DA
:101130001080401C0828CED35460BDE8F0814FF6E3
:10114000FF710180022181700421C1707047024645
:10115000002093680B400BB1012000E00020704795
:101160000146886880B2704702460020D3680B4071
:101170000BB1012000E0002070470146C86880B232
:10118000704701617047416170470AB1016100E039
:1011900041617047C16070474FF480320A438261F9
:1011A0008161826182698269704702460020434BF7
:1011B00018684FF68073184040EA021008433F4B0E
:1011C000186070473E49C8617047F0B50A46002371
:1011D00000240021002500F00046B6F1004F02D1A6
:1011E000364EF16901E0354E7168C0F3034583B2B4
:1011F00000F44016B6F5401F08D121F070612F4E63
:10120000766826F070662D4F7E6012E000F480163E
:10121000B6F5801F06D1032606FA05F4A14341F076
:10122000706106E0460D360103FA06F6B14341F05F
:10123000706122B1460D360103FA06F6314300F023
:101240000046B6F1004F02D11C4EF16101E01B4E89
:101250007160F0BD30B500228B071C0F0F2303FA1D
:1012600004F2164B08338C1053F824309343134C7C
:1012700008348D1044F8253023468C1053F8243060
:101280008C07240F00FA04F423430C4C08348D100F
:1012900044F8253030BD0A49DC3108607047000051
:1012A00000080140000C0140001001400014014002
:1012B00000180140001C01400020014000000140D6
:1012C00000002042DF48006840F00100DD4908606E
:1012D00008464068DC490840DA494860084600682A
:1012E000DA490840D74908600846006820F48020A1
:1012F00008600846406820F4FE0048604FF41F0074
:1013000088607047CF49096821F48031CD4A116067
:101310001146096821F480211160B0F5803F03D0A7
:10132000B0F5802F0ED106E0C649096841F480313E
:10133000C44A116007E0C349096841F4A021C14AC9
:10134000116000E000BF00BF704710B501460022E9
:10135000002300204A11012A02D1BA4C236806E07A
:10136000022A02D1B74C236A01E0B64C636A01F04D
:101370001F02012494401C400CB1012000E0002019
:1013800010BD38B5002000900024002500BF31209A
:10139000FFF7DBFF05460098401C00900098B0F571
:1013A000A06F01D0002DF2D03120FFF7CEFF08B1A1
:1013B000012400E00024204638BD01460020A14A57
:1013C000106820F0F80040EAC10010607047A049A2
:1013D00008607047024600209A4B586820F47C1041
:1013E00042EA01031843974B5860704798490866D2
:1013F000704701460020934A506820F003000843DC
:10140000506070478F48406800F00C0070470146FC
:1014100000208C4A506820F0F0000843506070476C
:1014200001460020874A506820F4E060084350607D
:10143000704701460020834A506820F4605040EA1B
:10144000C1005060704729B17E4A527A02437D4BF9
:101450005A7204E07B4A527A82437A4B5A7270473E
:101460007B49D8310860704701460020754A5068B2
:1014700020F440400843506070470021714A2032F8
:101480001170704A82F82010012802D004280AD175
:1014900004E001216B4A2032117005E00521694A00
:1014A0002032117000E000BF00BF7047694908603A
:1014B00070476449096A0143624A1162704765498D
:1014C00044390860704730B5002100220024002311
:1014D0005C4D6D6805F00C0121B1042905D0082987
:1014E00023D105E05C4D056022E05B4D05601FE007
:1014F000544D6D6805F47012524D6D6805F48034DA
:10150000022505EB92421CB9544D554305600BE092
:101510004C4D6D6805F400351DB1504D55430560C7
:1015200002E04D4D5543056002E04B4D056000BFA4
:1015300000BF444D6D6805F0F0010909484D6B5C32
:101540000568DD4045603F4D6D6805F4E061090ABE
:10155000434D6B5C4568DD4085603A4D6D6805F430
:101560006051C90A3E4D6B5C4568DD40C560354D34
:101570006D6805F44041890B3A4D6B5CC568B5FB5D
:10158000F3F5056130BD29B12E4A526902432D4B56
:101590005A6104E02B4A526982432A4B5A617047D0
:1015A00029B1284A92690243264B9A6104E0254AF0
:1015B00092698243234B9A61704729B1214AD269CB
:1015C0000243204BDA6104E01E4AD26982431D4B7C
:1015D000DA61704729B11B4AD2680243194BDA60BD
:1015E00004E0184AD2688243164BDA60704729B18A
:1015F000144A12690243134B1A6104E0114A12693A
:101600008243104B1A617047124940390860704795
:101610000F49C86470470B49C87170470948406A50
:1016200040F0807007494862704701460020054A33
:1016300092680A400AB1012000E000207047014989
:1016400088727047001002400000FFF8FFFFF6FEAE
:10165000000042428004424200127A0000093D002C
:10166000440000205400002010B50446FB4884428A
:1016700009D101218803FFF7ADFF00214FF480401D
:10168000FFF7A8FF32E0F648844209D1012148045F
:10169000FFF7ADFF00214FF40030FFF7A8FF25E072
:1016A000F048844209D101218804FFF7A0FF0021FE
:1016B0004FF48020FFF79BFF18E0EB48844209D1EC
:1016C0000121C804FFF793FF00214FF40020FFF72A
:1016D0008EFF0BE0E548844208D101210805FFF7A1
:1016E00086FF00214FF48010FFF781FF10BD2DE928
:1016F000F04786B005460E460024A24600BFA1462C
:101700000027B08900B100BF2F462C8A4CF6FF702D
:101710000440F08804432C82AC894EF6F310044058
:10172000B08831890843718908430443AC81AC8A8D
:101730004FF6FF400440B0890443AC8201A8FFF794
:10174000C2FEC648874202D1DDF810A001E0DDF8F4
:101750000CA0A88900F4004040B10AEBCA0000EBDD
:101760000A1031684900B0FBF1F807E00AEBCA0043
:1017700000EB0A1031688900B0FBF1F86420B8FB77
:10178000F0F004012009642101FB1089A88900F40C
:10179000004040B1322000EBC900B0FBF1F000F096
:1017A0000700044308E0322000EB09106421B0FB7D
:1017B000F1F000F00F0004432C8106B0BDE8F08783
:1017C0004FF41651016000218180C18001810C21FC
:1017D000418100218181704710B502460020108AA6
:1017E0004FF2FF0318400B884C8823438C88234317
:1017F000CC8823431843108210BD00210180418012
:101800008180C180704721B1828942F40052828177
:1018100004E082894DF6FF731A4082817047F0B56B
:101820000346002400260025002040F66A17B9422E
:1018300000D100BF1846C1F3421401F01F06012772
:1018400007FA06F5012C01D10C3004E0022C01D17D
:10185000103000E014301AB107682F43076002E02F
:101860000768AF430760F0BD1AB1838A0B438382D8
:1018700002E0838A8B4383827047028A4FF6F073BB
:101880001A400282028A0A430282704782894FF21A
:10189000FF731A40828182890A438281704721B195
:1018A000828942F00202828104E082894FF6FD7350
:1018B0001A4082817047028A4FF6DF731A40028213
:1018C000028A0A430282704721B1028A42F48042AE
:1018D000028204E0028A4BF6FF731A4002827047CC
:1018E000C1F308028280704701468888C0F308006F
:1018F0007047818941F0010181817047028BD2B22A
:101900000283028B42EA012202837047028B02F4B7
:101910007F420283028B0A430283704721B1828A8D
:1019200042F02002828204E0828A4FF6DF731A407E
:101930008282704721B1828A42F01002828204E0E2
:10194000828A4FF6EF731A408282704721B1828AF1
:1019500042F00802828204E0828A4FF6F7731A404E
:101960008282704721B1828942F40042828103E081
:101970008289C2F30E028281704721B1828A42F4C9
:101980000062828204E0828A4FF2FF731A408282F0
:101990007047828A4FF6FB731A408282828A0A431A
:1019A0008282704721B1828A42F00202828204E080
:1019B000828A4FF6FD731A408282704702460020E9
:1019C000B1F5007F00D100BF13880B400BB101209F
:1019D00000E00020704701F40072B2F5007F00D1F2
:1019E00000BFCA430280704770B50246002400233E
:1019F0000025002040F66A16B14200D100BFC1F3B5
:101A0000421501F01F03012606FA03F3012D02D14E
:101A10009689334006E0022D02D1168A334001E058
:101A2000968A33400C12012606FA04F416883440D4
:101A300013B10CB1012000E0002070BD10B50022F0
:101A4000002340F66A14A14200D100BF0A1201240B
:101A50009440A3B2DC43048010BD00000038014074
:101A60000044004000480040004C0040005000404E
:101A700031490143314A1160704770B5002100239C
:101A80000F22C47804B32D4C246804F4E064C4F538
:101A9000E064210AC1F10403CA40447804FA03F166
:101AA0008478144021430901254C0678A155047817
:101AB00004F01F050124AC4005786D11AD0005F15F
:101AC000E025C5F8004109E0047804F01F05012471
:101AD000AC401C4D0678761145F8264070BD1A4A78
:101AE0000A400243154B1B1F1A60704739B1134A55
:101AF000121D12680243114B1B1D1A6006E00F4AAB
:101B0000121D126882430D4B1B1D1A60704704287A
:101B100008D14FF0E021096941F004014FF0E022C3
:101B2000116107E04FF0E021096921F004014FF055
:101B3000E0221161704700000000FA050CED00E0A2
:101B400000E400E080E100E080FFFF1F10B50446E4
:101B5000FE48844208D10121C014FFF73BFD00215B
:101B6000E014FFF737FDC4E0B4F1804F08D1012144
:101B70000846FFF73CFD00210120FFF738FDB8E0E3
:101B8000F348844208D101210220FFF730FD0021F3
:101B90000220FFF72CFDACE0EE48844208D1012181
:101BA0000420FFF724FD00210420FFF720FDA0E022
:101BB000E948844208D101210820FFF718FD0021DF
:101BC0000820FFF714FD94E0E448844208D1012185
:101BD0001020FFF70CFD00211020FFF708FD88E022
:101BE000DF48844208D101212020FFF700FD0021B9
:101BF0002020FFF7FCFC7CE0DA48844208D1012178
:101C00004014FFF7E7FC00216014FFF7E3FC70E0ED
:101C1000D548844209D10121C804FFF7DBFC00212B
:101C20004FF40020FFF7D6FC63E0D048844209D18E
:101C300001210805FFF7CEFC00214FF48010FFF7CB
:101C4000C9FC56E0CA48844209D101214805FFF782
:101C5000C1FC00214FF40010FFF7BCFC49E0C5486F
:101C6000844208D101214020FFF7C1FC002140201F
:101C7000FFF7BDFC3DE0C048844208D1012180202F
:101C8000FFF7B5FC00218020FFF7B1FC31E0BB4835
:101C9000844208D101218015FFF7A9FC0021A0157D
:101CA000FFF7A5FC25E0B648844209D101210804CC
:101CB000FFF790FC00214FF48030FFF78BFC18E019
:101CC000B048844209D101214804FFF783FC002178
:101CD0004FF40030FFF77EFC0BE0AB48844208D1A4
:101CE00001218804FFF776FC00214FF48020FFF7E4
:101CF00071FC10BD00220288944B98420ED0994B83
:101D000098420BD0B0F1804F08D0914B984205D04B
:101D1000904B984202D0904B984204D14FF68F736B
:101D20001A404B881A438D4B984207D08C4B9842EF
:101D300004D04FF6FF431A40CB881A4302808B88A9
:101D400083850B880385814B98420BD0854B984245
:101D500008D08B4B984205D08A4B984202D08A4BD0
:101D6000984201D10B7A038601238382704770B5B4
:101D7000002400220023058C4FF6FE7635400584B2
:101D8000028C8388048B4FF68F752C40B51E2C4037
:101D90000D882C43751E2A400D892A434D882A43FD
:101DA0006A4DA8420BD06F4DA84208D0744DA8428E
:101DB00005D0744DA84202D0734DA84213D14FF6FE
:101DC000F7752A404D892A434FF6FB752A408D88C6
:101DD0002A434FF6FF652B404FF6FF552B408D8968
:101DE0002B43CD892B4383800483CD888586028451
:101DF00070BD70B5002400220023058C4FF6EF76ED
:101E000035400584028C8388048B48F6FF752C408E
:101E10004FF6FF452C400D884FF6FF7606EA052564
:101E20002C434FF6DF752A400D8906EA05152A4333
:101E30004D8806EA05152A43444DA84202D0494D73
:101E4000A8421DD14FF67F752A404D894FF6FF7687
:101E500006EA05152A434FF6BF752A408D8806EA23
:101E600005152A434FF6FF352B404FF2FF752B40E7
:101E70008D8906EA85052B43CD8906EA85052B4326
:101E800083800483CD880587028470BD70B50024EB
:101E900000220023058C4FF6FF6635400584028C36
:101EA0008388848B4FF68F752C404FF6FC752C4041
:101EB0000D882C434FF6FF552A400D894FF6FF76CB
:101EC00006EA05252A434D8806EA05252A431F4DC3
:101ED000A84202D0234DA8421DD14FF2FF752A40DF
:101EE0004D894FF6FF7606EA05252A434FF6FF3562
:101EF0002A408D8806EA05252A434EF6FF752B40B9
:101F00004DF6FF752B408D8906EA05152B43CD89CB
:101F100006EA05152B4383808483CD888587028458
:101F200070BD70B5002200230024058C4EF6FF76AC
:101F300035400584038C8488828B48F6FF752A40DF
:101F40004FF6FF452A400D8820E00000002C01409C
:101F50000004004000080040000C00400010004059
:101F60000014004000340140004C0140005001408A
:101F70000054014000180040001C004000200040B8
:101F80000040014000440140004801404FF6FF7608
:101F900006EA05252A434DF6FF752B400D8906EA12
:101FA00005352B434D8806EA05352B43FA4DA842EB
:101FB00002D0FA4DA84208D14BF6FF752C408D890E
:101FC0004FF6FF7606EA85152C4384808283CD8800
:101FD000A0F84050038470BD828B4FF2FF331A404B
:101FE0008283828B4FF6FF7303EA01231A438283B5
:101FF0007047F0B50C461546002200210026078CDC
:102000004EF6FF7C07EA0C070784828B018C4FF6A3
:10201000FF7707EA043640F6FF473A404FF6FF776E
:1020200007EA05273A434FF6FF7707EA03373A43B3
:10203000D94FB8420ED0D94FB8420BD0B0F1804F33
:1020400008D0D74FB84205D0D64FB84202D0D64FAD
:10205000B84206D14DF6FF77394046F480573943F0
:1020600005E047F6FF57394044F4805739438283EF
:102070000184F0BD828B4FF6F3731A408283828B0A
:102080000A4382837047F0B50C46154600220021B2
:102090000026078C4FF6FF6C07EA0C070784828B3B
:1020A000018C4FF6FF7707EA04264FF60C773A408B
:1020B0004FF6FF7707EA03172F433A43B64FB8426C
:1020C0000ED0B64FB8420BD0B0F1804F08D0B44F0D
:1020D000B84205D0B34FB84202D0B34FB84206D190
:1020E0004FF6FF57394046F48077394305E04FF209
:1020F000FF57394044F48077394382830184F0BD2F
:10210000028B4FF2FF331A400283028B4FF6FF73AC
:1021100003EA01231A4302837047F0B50C461546C3
:10212000002200210026078C4FF6EF7C07EA0C07FF
:102130000784028B018C4FF6FF7707EA041640F6FE
:10214000FF473A404FF6FF7707EA03373A434FF627
:10215000FF7707EA05273A438F4FB8420ED08F4FDB
:10216000B8420BD0B0F1804F08D08D4FB84205D0A7
:102170008C4FB84202D08C4FB84206D14FF6DF7771
:10218000394046F01007394305E04FF65F77394094
:1021900044F01007394302830184F0BD028B4FF6EF
:1021A000F3731A400283028B0A4302837047F0B52F
:1021B0000C46154600220021068C4FF6FE773E4065
:1021C0000684028B018C4FF60C7632407E1C06EAA8
:1021D00003162E433243704EB0420ED06F4EB042C3
:1021E0000BD0B0F1804F08D06D4EB04205D06D4E8F
:1021F000B04202D06C4EB04206D14FF6FD7631406F
:1022000044F00106314305E04FF6F576314044F0E5
:102210000106314302830184F0BD70B505460C46CA
:102220005D4885420ED05D4885420BD0B5F1804FA8
:1022300008D05B48854205D05A48854202D05A48AA
:10224000854200D100E000BF208850B92389A288D0
:1022500061882846FFF7ABFFE1882846FFF79EFF1D
:1022600025E0208804280AD12389A288618828468D
:10227000FFF753FFE1882846FFF742FF17E0208869
:1022800008280AD12389A28861882846FFF7FBFE27
:10229000E1882846FFF7EEFE09E02389A2886188DD
:1022A0002846FFF7A6FEE1882846FFF795FE70BD99
:1022B0002DE9F04105460C4600260127608808B943
:1022C000022600E00026A088012801D1022700E0B4
:1022D00001272088A0B92389A28861882846FFF7B2
:1022E00066FFE1882846FFF759FF23893A463146C1
:1022F0002846FFF712FFE1882846FFF701FF13E0A9
:102300002389A28861882846FFF707FFE1882846CD
:10231000FFF7F6FE23893A4631462846FFF747FF86
:10232000E1882846FFF73AFFBDE8F0810A884B882C
:102330001A438B881A43CB881A430B891A434B895B
:102340001A438B891A43A0F8442070474FF6FF7157
:10235000818000210180C18041800172704700218D
:10236000018041808180C180018141818181C18161
:102370007047002101804180012181800021C180BE
:10238000018170470021018041808180C1800181ED
:102390004181818170470000002C014000340140E0
:1023A0000004004000080040000C004021B10288F9
:1023B00042F00102028004E002884FF6FE731A40E8
:1023C0000280704731B1B0F8442042F40042A0F8D6
:1023D000442005E0B0F84420C2F30E02A0F84420E7
:1023E00070471AB183890B43838102E083898B4351
:1023F000838170478182704741EA0203A0F8483028
:1024000070471AB183890B43838102E083898B4330
:102410008381704701894FF6F8721140018170473E
:102420000A46002101894FF68F731940114301813B
:10243000704730B504460D4629462046FFF7F0FFA9
:10244000208940F00700208130BD2DE9F04104468D
:102450000D4616461F46602D06D13B4601223146E9
:102460002046FFF75AFE05E03B4601223146204652
:10247000FFF79DFE29462046FFF7D2FF208940F056
:1024800007002081BDE8F08130B50C4600210189AC
:10249000C9B24FF6FF7505EA0325154325432943C5
:1024A000018130BD2DE9F04105460E46174698469C
:1024B000002443463A4631462846FFF7E5FF2C897B
:1024C0004FF6F870044044F007044FF68F70044054
:1024D00044F070042C81BDE8F081F0B504460D464F
:1024E00016461F463B46324629462046FFF7CCFF9C
:1024F000208940F480402081F0BD018582827047B0
:102500000A46002101884FF68F731940114301805C
:102510007047F0B50C4615461E46002100220023E8
:102520000189028B038C4FF6F877394021434FF62F
:10253000FC473A4040F201173A434FF6DD773B4003
:102540004FF6FF7707EA06172F433B4301810283CB
:102550000384F0BD0A460021018B4FF68F731940AA
:102560001143018370470A460021018B48F6FF732F
:1025700019404FF6FF7303EA0223194301837047A2
:102580000A460021818B4FF68F73194011438183D6
:1025900070470A460021818B48F6FF7319404FF6B9
:1025A000FF7303EA022319438183704721B1028834
:1025B00042F08002028004E002884FF67F731A40E6
:1025C0000280704721B1828842F00402828004E0D8
:1025D00082884FF6FB731A408280704721B182884F
:1025E00042F00802828004E082884FF6F7731A40B6
:1025F0008280704721B1828842F00102828004E02B
:1026000082884FF6FE731A40828070470A46002186
:10261000018B4FF6F77319401143018370470A4647
:102620000021018B4FF2FF7319404FF6FF7303EA4D
:1026300002231943018370470A460021818B4FF61C
:10264000F77319401143818370470A460021818B3B
:102650004FF2FF7319404FF6FF7303EA0223194349
:10266000818370470A460021018B4FF6FB731940A6
:102670001143018370470A460021018B4FF6FF3357
:1026800019404FF6FF7303EA022319430183704791
:102690000A460021818B4FF6FB7319401143818359
:1026A00070470A460021818B4FF6FF3319404FF6E1
:1026B000FF7303EA02231943818370470A4600210E
:1026C000018B4FF67F7319401143018370470A460F
:1026D0000021018BC1F30E014FF6FF7303EA0223C1
:1026E0001943018370470A460021818B4FF67F739F
:1026F00019401143818370470A460021818BC1F341
:102700000E014FF6FF7303EA0223194381837047DA
:102710000A460021018C4FF6FD73194011430184D4
:1027200070470A460021018C4FF6F7731940114398
:10273000018470470A460021018C4FF6DF7319406F
:102740004FF6FF7303EA02131943018470470A46E8
:102750000021018C4FF67F7319404FF6FF7303EA97
:1027600002131943018470470A460021018C4FF679
:10277000FF5319404FF6FF7303EA02231943018404
:1027800070470A460021018C4FF2FF7319404FF643
:10279000FF7303EA02231943018470470A460021AC
:1027A000018C4DF6FF7319404FF6FF7303EA0233B5
:1027B00019430184704730B5002301248C40A3B233
:1027C000048C9C430484048C02FA01F5ADB22C43C2
:1027D000048430BD30B5002304248C40A3B2048CA3
:1027E0009C430484048C02FA01F5ADB22C430484AA
:1027F00030BD70B50346002000241846183001256E
:102800008D40ACB21D8CA5431D8409B1082909D1A6
:1028100000EB6100056825F070050560056815434B
:1028200005600EE00D1FC5F34E052844056825F42C
:10283000E045056005684FF6FF7606EA0226354357
:10284000056070BD21B1028842F00202028004E0FE
:1028500002884FF6FD731A400280704721B102884A
:1028600042F00402028004E002884FF6FB731A4033
:102870000280704721B1828842F08002828004E0A9
:1028800082884FF67F731A408280704702884FF625
:10289000F7731A40028002880A43028070478288D8
:1028A0004FF68F731A40828082880A438280704775
:1028B00002894FF6F8731A40028102890A430281A5
:1028C000704702894FF67F731A40028102890A43DA
:1028D0000281704781847047818570478186704787
:1028E0000187704781877047A0F8401070470288C1
:1028F0004FF6FF431A40028002880A430280704765
:102900000146888E70470146088F70470146888FC0
:1029100070470146B1F8400070470146888C704707
:102920000146088D704702460020138A0B400BB108
:10293000012000E000207047CA430282704730B592
:102940000246002000230024158A05EA0103958928
:1029500005EA010413B10CB1012000E0002030BDF4
:10296000CA430282704700000FB4044910B503AA9D
:10297000029800F09FFA10BC5DF814FB40000020A4
:102980002DE9F0474FF0000A89460446C0F820A020
:102990002046E1688847002876D0252806D0D4E96B
:1029A00001219047206A401C2062F1E7E16820463F
:1029B00000258847C4F81CA006460027C4F818A0C4
:1029C0002A2E09D0304600F0EDFF38B304EB87081B
:1029D000303EC8F8186019E059F8041B204604EB93
:1029E00087029161E1688847012F064618D1E069A6
:1029F000002820DA25F020051DE0D8F8180000EBAB
:102A0000800006EB40003038C8F818002046E16826
:102A10008847064600F0C6FF0028EED1012F0AD0F5
:102A20002E2E08D12046E16888477F1C0646022FDB
:102A300045F02005C4DBA069002803DA404245F0D8
:102A40000105A061E80701D025F01005B6B1A6F197
:102A50004100192802D8203645F400654A4631461F
:102A6000204625604D46FDF77BFB58B1012806D076
:102A7000ED1D25F0070000F1080989E704E005F1E4
:102A8000040985E730468AE7206ABDE8F087704789
:102A90007047704770472DE9FF4F0C461E464FF0B8
:102AA000FF378BB0D2E90001DDF860800A908A46DA
:102AB000C1F30A5505B93D46002108464FF0000014
:102AC000BAF1000F00F4400005DA00EB80004FF48B
:102AD000400101EA50004FEA9059B9F1010F00DDC1
:102AE000B9460A9850EA4A000ED044F61050A5F2B2
:102AF000FF3545432F14B8F1000F1ED07542291E33
:102B00001EDDC9F100021CE0B8F1010F4FF000001A
:102B100001D0302103E0F24305E02154401CB042D3
:102B2000FBDB30460022002121540B99C1F80880BC
:102B3000C1E900200FB0BDE8F08FBD1B6D1CDEE7C2
:102B40004A4600DA694206A800F068FA06AB93E844
:102B5000070003AB83E8070050460A9900F046FBE4
:102B60008DE80700A0F500501F3800900398002D55
:102B70000ADD42F21F014A460844002303A90390DC
:102B8000684600F0AFFD09E0A0F500504A461F3846
:102B9000002303A90390684600F0B9FD8DE8070003
:102BA0000004000C03D04FF0FF30410800E0104655
:102BB000B8F1000F03D00022009215461EE0751EEA
:102BC00005D400F08DF9303262556D1EF9D5B3464B
:102BD0000122084302D000227F1C04E02078302824
:102BE00001D100227F1E002A099784D01DE0112DFB
:102BF00007DA00F075F9303262556D1C50EA0102B7
:102C0000F5D1084302D00098C8B10EE00021681E3B
:102C100005E0235C625C63542254401E491C8142DF
:102C2000F7DBAB46A81B401E0990002004F80B0000
:102C30000B98099AC0F80880C0E9002B7AE71126A2
:102C40004FF0000857E72DE9F04F88460446D21DA3
:102C500022F0070191B0D1E90001CDE90A0100F0AD
:102C60008DFE02460B98C00F01D02D2007E0206892
:102C7000810701D52B2002E0202101EAC000032AB0
:102C8000099001D0072A05DB03464146204600F0A3
:102C900085F90BE12078800601D5E06900E0062087
:102CA000B8F1650F814606D0B8F1660F18D0B8F1BB
:102CB000670F70D131E00020B9F1110F009001DBF6
:102CC000112301E009F101030AAA01A90CA8FFF7E9
:102CD000E2FEDDE90C70002609F10105834647E0BC
:102CE00001204B4600904FF000470AAA01A90CA80A
:102CF000FFF7D1FEDDE90DB00C995D46002610B955
:102D000009F101000D18B9EB050003D4C0F1FF363D
:102D100009F10105A5EB09002BE0B9F1010F01DA7A
:102D20004FF001090020B9F1110F0090484601DD74
:102D3000112300E003460AAA01A90CA8FFF7ABFE85
:102D4000DDE90C704D4600268346207800070AD442
:102D5000AB4500DA5D4601A8012D04DD411911F8EB
:102D6000011C302907D04F4502DA17F1040F04DAAD
:102D7000012082460FE06D1EEEE7002F02DCED1B06
:102D80003E4403E0781CA84200DD7D1CB81B00F126
:102D9000010A4FF000472078000703D4AA4501DB61
:102DA0004FF0FF3A0021B7F1004F0DF143088DF8C5
:102DB000431024D002202B23002F01DA7F422D2341
:102DC0000A21021EA0F1010000DC5FB197FBF1FCBB
:102DD00097FBF1F201FB1C7C17460CF1300C08F854
:102DE00001CDEEE7A8F1010003702188090501D5A6
:102DF000452100E06521A0F1010800F8011C0998B7
:102E00000FA9A1EB0807FF1D00B10120411901EB3B
:102E1000EA70A1693844081A401EA0612078C006F3
:102E200002D42046AFF30080099828B1D4E90121EB
:102E30009047206A401C20622078C00622D5204698
:102E4000AFF300801EE0002E04DBB34502DD01A8D5
:102E5000805D00E03020D4E901219047206A401CC9
:102E60002062761CAAF101005FEA000A0AD100F094
:102E700033F8C0680168405CD4E901219047206ABA
:102E8000401C2062281EA5F10105DCDC07E0D4E926
:102E9000012118F8010B9047206A401C2062381E5F
:102EA000A7F10107F3DC2046AFF30080032011B047
:102EB00041E60000074B70B50D467B4400F05BF81F
:102EC0000446284600F01CF910B14FF0FF3070BDE9
:102ED000204670BDD9DEFFFF004870477800002013
:102EE00030B5B0F10A024FEA900E71F100034EEADC
:102EF000817EB0EB0E0061EB91014FEA101E4EEAAD
:102F0000017E10EB0E0041EB11114FEA102E4EEA3C
:102F1000016E10EB0E0041EB11214FEA104E4EEA0C
:102F2000014E10EB0E0041EB1141401841F1000140
:102F30004FEAD00040EA41704FEAD10110EB800522
:102F40004FEA810444EA907444EB01046D1944EBA8
:102F50000404521BA3414FF0000348BF0A3200D5BE
:102F600030BD401C41F1000130BD000001694A1C28
:102F700002610878704700B58FB0CDE901310021BA
:102F8000059105497944CDE9031011466846FFF7DC
:102F9000F7FC0FB000BD0000E5FFFFFF2DE9F04199
:102FA0001F46044603260168072A01F4006004DB7B
:102FB00008B116A505E016A503E008B115A500E0C7
:102FC00015A521F010002060A069C01EA0610FB1FE
:102FD000401EA0612046AFF300804FB1D4E901212B
:102FE00038469047206A401C2062C01C206206E0E0
:102FF000206AFAE7D4E9012115F8010B9047761E03
:10300000F8D22046AFF30080BDE8F0814E414E007B
:103010006E616E00494E4600696E66002DE9F0470C
:10302000814616468AB0354878440DC88DE80D00B3
:1030300032487844801C03AC0DC884E80D0041F68A
:103040009B300844372190FBF1F290FBF1F5A5F19C
:10305000800501FB12041B3C02D56442012000E004
:103060000020DFF898A080460027FA44AAF1BE0AA3
:103070000EE0E0070AD03246684607EB470101231D
:103080000AEB810100F043FB8DE8070064107F1C10
:10309000002CEED1194F7F44AE3F19E0E80715D060
:1030A00007EB04100DF1180A90E80E008AE80E00F4
:1030B000C068F04201D1981908903246012306A950
:1030C00003A800F024FB03AB83E807006D10641C29
:1030D000002DE3D14FF0010332466946B8F1000FED
:1030E00003A802D000F0FEFA01E000F010FBC9E9ED
:1030F0000001C9F808200AB0BDE8F0877810000088
:10310000007B00F0800070470048704758000020A6
:103110007546FFF7F9FFAE4605006946534620F0B5
:103120000700854618B020B5FDF70CFFBDE820402C
:103130004FF000064FF000074FF000084FF0000B73
:1031400021F00701AC46ACE8C009ACE8C009ACE826
:10315000C009ACE8C0098D46704710B50446AFF30E
:1031600000802046BDE81040FDF714B84FF0013C48
:1031700050F8042B51F8043B9A4221D1A2EB0C03E6
:10318000934313EACC1317D150F8042B51F8043BA6
:103190009A4215D1A2EB0C03934313EACC130BD143
:1031A00050F8042B51F8043B9A4209D1A2EB0C03CE
:1031B000934313EACC13DBD04FF00000704700BFFD
:1031C000D01A01BAB1FA81F101F0180122FA01F026
:1031D000CB40C1F12001DBB2C0B2C01A2CFA01F31E
:1031E000D11A914311EAC311E6D170475FEA400C4E
:1031F00008BF91F0000F4FEA8C234FEAC12243EA47
:1032000051514FEA1C5018BF00F5F0404FEA300012
:1032100018BF41F000415FEA6C5C00F02980BCF10E
:10322000FF3F08BF40F080407047130C06BF1204F8
:103230004FF0100C4FF0000C130E04BF12020CF1F3
:10324000080C130F04BF12010CF1040C930F04BF00
:1032500092000CF1020CD30F04BF52000CF1010CD0
:1032600011464FF00002A0F11F00A0EB0C007047C8
:1032700011F0004F08BF704731F000413FF4D5AF67
:103280000B0C06BF09044FF0100C4FF0000C0B0E96
:1032900004BF09020CF1080C0B0F04BF09010CF16B
:1032A000040C8B0F04BF89000CF1020CCB0F04BF80
:1032B00049000CF1010CCCF12003A0EB0C0022FA28
:1032C00003F302FA0CF241EA030100F10100704736
:1032D00020F07F4C80EA030023F07F47ACEB07032C
:1032E00003F57C5300F0004003F1FF032DE9804912
:1032F0004FEA154B09B44FEA144325EA0B4E24EA72
:1033000003480FF2042606EB132749083E785FEACC
:10331000320203FB0667C7F5000707FB06F64FEA14
:1033200054374FEAD64606F1020607FB066CCCF18D
:10333000005C4FEA1C472CEA074C07FB06F40CFB29
:1033400006F504EB15464FEA961634BF00204FF001
:1033500000404FEAD13706FB07FC4FEA1C4C0CFB40
:103360000BF7D21B03FB0CF761EB07010CFB0EF70D
:10337000B0EB074072EB17420CFB08F734BFA2EB2F
:103380000742B2EB074261EB17414FEA0C444FEAA8
:10339000910706FB07FC4FEA1C4C0CFB0BF7B0EB4C
:1033A000C74072EB573203FB0CF734BFA2EBC742A6
:1033B000B2EBC74261EB57310CFB0EF7B0EBC70025
:1033C00072EB57720CFB08F734BFA2EBC702B2EBEB
:1033D000C70261EB5771039F4FEA816141EA921185
:1033E00004EBCC044FEAD1374FEA826206FB07FCBC
:1033F00042EA90124FEA80604FEA1C4C0CFB0BF73C
:10340000D21B03FB0CF761EB07010CFB0EF7B0EBD3
:10341000074072EB17420CFB08F734BFA2EB0742E0
:10342000B2EB074261EB17414FEA8C554FEA910727
:1034300004EB9C2406FB07FC4FEA1C4C0CFB0BF72F
:10344000B0EBC74072EB573203FB0CF734BFA2EB73
:10345000C742B2EBC74261EB57310CFB0EF7B0EB42
:10346000C70072EB57720CFB08F734BFA2EBC70220
:10347000B2EBC70261EB577115EB4C254FEA816146
:1034800041EA92114FEA82624FEAD13742EA901242
:1034900006FB07FC44F100044FEA80604FEA1C4C35
:1034A0000CFB0BF7D21B03FB0CF761EB07010CFBCA
:1034B0000EF7B0EB074072EB17420CFB08F734BF76
:1034C000A2EB0742B2EB074261EB174115EB1C156B
:1034D0004FEA813141EA92414FEA823242EA904218
:1034E0004FEA80304FEA0C7644F1000448EA034387
:1034F0004EEA0B484FF0000EB2EB080C71EB0307DD
:1035000024BF624639464EEB0E0E4FF0000B0018FA
:10351000524149414BEB0B0BB2EB080C71EB03072B
:103520007BF1000B24BF624639464EEB0E0E4FF086
:10353000000B0018524149414BEB0B0BB2EB080C4E
:1035400071EB03077BF1000B24BF624639464EEB5B
:103550000E0E51EA020718BF46F0010616EB0E7672
:1035600055F1000254F1000103D5BDE88901BDE821
:103570000088BDE88901BDE80048B619524141EB19
:103580000101A3F10103704780807F7E7D7C7B7AFF
:103590007978777676757473727171706F6E6E6DFF
:1035A0006C6C6B6A6A6968686766666564646363A5
:1035B00062616160605F5F5E5E5D5D5C5C5B5B5A2B
:1035C0005A59595858575756565555555454535398
:1035D00052525251515050504F4F4F4E4E4D4D4DF3
:1035E0004C4C4C4B4B4B4A4A4A494949484848473E
:1035F000474747464646454545444444444343437C
:103600004342424242414141002B9C4630D4770024
:103610002BD01CB54FEA370703B44FF010004FF022
:103620001001BAF1000F06D0BCF1000FDCBF40F072
:10363000080040F008014FF000000FBCBDE810404A
:103640000BF1010BBBF1010F08BF5FEA170722BFA7
:1036500012F1010211F101014FF0004143F10003A9
:1036600000F0004043EA00007047F9D35708D0E764
:1036700046EA064613F1400F4FEA16461FDD13F1E6
:10368000200FDFBF16430A46002120335B42BED025
:10369000C3F1200746EA064602FA07F74FEA164644
:1036A00046EA0706C3F1200722FA03F201FA07F7F8
:1036B00021FA03F14FF0000342EA0702A7E746EAC6
:1036C000020646EA06464FEA164646EA0106BCBF2F
:1036D00046EA0646360C4FF000034FF000024FF06A
:1036E000000194E72DE9804C9A46934670B491E826
:1036F000380007C831EA400C48BF34EA430C03D510
:10370000FFF7E6FDFFF780FFF0BCBDE8008C2DE978
:10371000804C9A46934670B491E8380007C810F080
:10372000804F08BF13F0804F03D100F005F8FFF77A
:103730006BFFF0BCBDE8008C20F07F4780EA0300FF
:1037400023F07F4C07EB0C03A3F57C5300F0004003
:10375000A3F1FE0392F0000F00F0B38095F0000F8C
:1037600000F077802DE901494FEA11404FEA1446F5
:1037700021EA004800FB06FC24EA064708FB06F69F
:1037800007FB08F800FB07F718EB06484CEB164C54
:103790004FEA124B18EB07484FEA15464CEB17401F
:1037A00022EA0B4E0BFB06FC25EA06470EFB06F64B
:1037B00007FB0EFE0BFB07F71EEB064E4CEB164C01
:1037C0004FF000061EEB074E4CEB174B18EB0B08A7
:1037D00040F1000018EB0E0B58EB000840F1000020
:1037E0008F1A4FF000013CBFC943661B14BFB5EBF5
:1037F000040C00213CBFC943F61B4FEA17444EEAB4
:103800008E0E27EA04454FEA1C4704FB07622CEAA8
:10381000074C05FB07F70CFB05F604FB0CFC16EB4D
:10382000074642EB174216EB0C4642EB1C421BEBE1
:10383000060658EB0202414146EA9E0601D5BDE864
:103840000189B619524141EB0101A3F10103BDE821
:1038500001894FEA14454FEA114724EA054621EA57
:10386000074C05FB07F406FB07F70CFB06F105FB0D
:103870000CFC11EB074144EB17444FEA124711EBE4
:103880000C4144EB1C4422EA074C05FB07F206FB03
:1038900007F70CFB06F605FB0CFC16EB074642EBA4
:1038A000174216EB0C4642EB1C456A1854F1000116
:1038B00048BF7047B619524141EB0101A3F1010322
:1038C000704795F0000F37D04FEA11424FEA144786
:1038D00021EA024624EA074C02FB07F106FB07F740
:1038E0000CFB06F402FB0CFC14EB074441EB174104
:1038F0004FEA154714EB0C4441EB1C4125EA074CF9
:1039000002FB07F506FB07F70CFB06F602FB0CFCB7
:1039100016EB074645EB174516EB0C4645EB1C42EC
:10392000121951F1000148BF7047B619524141EBDD
:103930000101A3F1010370474FEA14454FEA114713
:1039400024EA054621EA074C05FB07F106FB07F7C9
:103950000CFB06F24FF0000605FB0CFC12EB0742D5
:1039600041EB174112EB0C4251EB1C4148BF704731
:10397000921841EB0101A3F101037047490050EA9D
:10398000C12018BF04204A0D18BF40F0010040F2CA
:10399000FF72B2EB515F08BF40F00200012808BF80
:1039A0000520704730380A2801D2012070470020D6
:1039B0007047000010B500290AD00878002807D009
:1039C00005487844FFF7D2FB002801D0002010BD45
:1039D0000248784410BD00001A07000012070000DA
:1039E0000808A0F500114FEA3101704743004FEA83
:1039F000D30C4FEA3C0C43401FBF40070CF1605111
:103A000013F0FE4F70471CF0006F03D100200CF044
:103A1000004170470CF0004343EA507010B540EA93
:103A2000CC0000F00CFA00BF000000924FEA000149
:103A3000FFF7D6BF4FF000414FF00000A1F5002185
:103A40007047000090EA010F48BF81F0004100F18B
:103A50007A82421A3CBF801A89184FEAD0524FF03E
:103A60007F4C1CEA410FA2EBD15318BF9CEA026FB6
:103A700000F03B804FF0004C4CEA00204CEA012162
:103A800021FA03FC10EB0C0C1ED202F1FF325FEAAC
:103A90001C2040EBC25038BF70471CF07F0F4FEA2C
:103AA000400C18BFBCF17F4F38BF7047C3F12003F3
:103AB000994008BF20F00100BCF17F4F38BF70472C
:103AC000A0F1C04000F001BA4FEA3C00000A40EB10
:103AD000C25028BF1CF0FF0F4FEA400CE6D018BFC1
:103AE000BCF17F4F38BF7047EAE79CEA026F05D010
:103AF00010EA5C0F08BF00F00040704710B500F0FE
:103B00009EF900BF64FBBE3E401058BFC0F140406C
:103B1000491058BFC1F140418142EFF30080704726
:103B20004FF47F0C1CEAD0121EBF1CEAD11392EA9C
:103B30000C0F93EA0C0F00F0858090EA010F48BF4C
:103B400042F4807240F4000C41F400002CF07F41FC
:103B500020F07F4000B58142A2EB03020FF2081C67
:103B6000ACEB504EC0F100009EF800E04FEA4E0E64
:103B700000FB0EFC38BF49004FEA2C1C02F5FA028C
:103B80000CFB0EF34FEACE1E4FEA112C4FEAC12177
:103B90000EEB635E42EB22420EFB0CFC4FEA1C5321
:103BA00000FB03114FEA112C4FEA01310EFB0CFC14
:103BB0004FEADC4C00FB0C11C14228BF09184CEB4A
:103BC00003335DF804EB10EB410143EBC250B2F557
:103BD0007C0F38BF704729D512F0F00F1CBF00F1E1
:103BE000C04000F000407047008182838485868752
:103BF00088898B8C8D8E8F919293959697999A9CAC
:103C00009D9FA0A2A3A5A7A8AAACAEB0B2B3B5B71A
:103C1000B9BCBEC0C2C5C7C9CCCED1D4D7D9DCDFF0
:103C2000E2E6E9ECF0F3F7FAFE0000004FEA400CA0
:103C30000CF1807CBCF17E4F28BF7047B0F1C040D2
:103C400000F043B990EA010F0CEAD11348BF42F4E7
:103C50008072624538BF634507D213F47F0F16D0D8
:103C600080EA010000F00040704710B500F0E7F86E
:103C7000097EFC3E00F005B880EA010000F000403B
:103C8000704780EA010000F0004000F01EB912F415
:103C90007F0F04BF0248704780EA010000F015B9A9
:103CA0000000C07F10F0004148BF4042B0FA80F3EE
:103CB00010FA03F2C3F19D030BD051EAC35101EB9B
:103CC0001220530638BF704700F1010008BF20F0F2
:103CD0000100704750EA010C00F113801CF5000F41
:103CE00058BFBCF5000F01D48842704707D710F5C4
:103CF000000F58BF11F5000F15D488427047894254
:103D000070471CF5000F04D5BCF5000FF7D58142B4
:103D100070474FF0807C1CEB400F38BF1CEB410F0D
:103D200001D28142704710B500F089F89224490011
:103D30004FF000504FF08051FFF7E6BE4FF47F0C7C
:103D40001CEAD0121EBF1CEAD11392EA0C0F93EAB0
:103D50000C0F00F0478090EA010F48BF42F48072D8
:103D60004FF0004C4CEA00204CEA012102EB030228
:103D7000A0FB0113A2F50002002918BF43F00103C4
:103D80005B0028BF4FEA330342EB22425FEA132C69
:103D90004CEBC2502EBFBCEB436FB2F57C0F7047AB
:103DA0004FEA036CBCF1004F08BF20F00100B2F5F0
:103DB0007C0F38BF70470BD582F0FF0212F5803FB1
:103DC000C8BF704700F1C040D8BF00F00040704746
:103DD00000F5000C5FEA4C0C48BF7047B0F1C040E2
:103DE00000F073B890EA010F0CEAD11348BF42F417
:103DF0008072624538BF634504D280EA010000F05A
:103E00000040704710B500F01AF800BF8900013E6D
:103E100000F007B800F009B85FEA410C5FEA1C6CDB
:103E200008D080EA010000F050B85FEA400C5FEA79
:103E30001C6CF6D14FF00040A0F5800070470EF1E9
:103E4000020E2EF0030E5EF8044B244204D44FEA17
:103E50004102B2F17F4F11D84FEA4003B3F17F4FD7
:103E60000CD80ED14FEAD07CB2F17F4F0CEB4C0C4A
:103E70000CF1020C08BF4CEBD17C04E04FF0080CB5
:103E800001E04FEAD17C0CEB4C0324FA03F404F07C
:103E90000704B4F1040C06D20EEB840CBDE810400C
:103EA0004CF0010C6047DFE80CF0070802024FF00D
:103EB0000040A0F5800010BD0846420018BFD2F1B6
:103EC000807288BF00F0004010BDFF2141EAD05051
:103ED000C005704751EA000C00F113801CF5000F7B
:103EE00058BFBCF5000F01D48142704707D711F5C8
:103EF000000F58BF10F5000F15D48142704789425A
:103F000070471CF5000F04D5BCF5000FF7D58842AB
:103F100070474FF0807C1CEB410F38BF1CEB400F0B
:103F200001D28842704780EA010081EA000180EAFC
:103F30000100FFF7F8BE000090EA010F48BF81F0D2
:103F400000413FF586AD421A04D882F00042A0EB52
:103F5000020011444FEAD0524FF07F4C1CEA410F4F
:103F6000A2EBD15318BF9CEA026F4AD04FF0004C2D
:103F70004CEA00204CEA012121FA03FCB0EB0C0CC6
:103F80000FD412F0FE0F36D05FEA4C001DD50012A0
:103F900040EBC25038BF70471CF03F0F18BF70474E
:103FA0000BE0A2F101025FEA1C2040EBC25038BFD7
:103FB00070471CF07F0F18BF7047C3F12003994072
:103FC00014BF401E20F00100704780084FEA122302
:103FD00008BF7047B0FA80FCA2EB0C02CCF1280CB1
:103FE00060FA0CF093EA122F04BF00EBC250704746
:103FF0004FEAC3707047130A5FEADC1008BF7047CE
:10400000F6E79CEA026F04D010EA5C0F08BF0020BC
:10401000704710B5FFF713FF40DFF63E81F0004018
:104020007047FEF710BE000002400000000000A034
:104030000000000005400000000000C80000000073
:104040000C4000000000409C0000000019400000EF
:104050000020BCBE0000000034400000BFC91B8E21
:1040600000000004B5400000504BCFD06607E2CFFF
:10407000010000006C4100003E8251AADFEEA7342F
:1040800001000000D9420000DCB5A0E23A301F97E1
:10409000FFFFFFFFB4450000FD25A0C8E9A3C14F05
:1040A000FFFFFFFFFF3F0000000000800000000056
:1040B000FF3F00000000008000000000F840000802
:1040C00000000020580000002801000850410008AE
:1040D0005800002060060000440100081C00000099
:1040E00043000000F8FFFFFF0C0000000E0000007E
:1040F0000F0000002E00000000A24A040000000093
:104100000000000001020304060708090000000087
:10411000000000000000000000000000000000009F
:10412000000000000000000000000000000000008F
:10413000000000000000000000000000000000007F
:104140000102030401020304060708090204060829
:04000005080000ED02
:00000001FF
